:020000040000FA
:1000000080311628080008007E1480314E01161E2B
:100010000A280B2814280C1E0E280F2814289D319E
:10002000042580314101E9147E100900803118282F
:100030001A3084009C3085005130860001308700E2
:1000400008309C310C2480314101E901E130840009
:100050000030850008309C31062480312030840037
:100060000130850020309C3106248031A03084008E
:100070000130850050309C31062480317E104001D3
:100080009431C92C4101BA00BB01BC0140014908AF
:100090004101D000400148084101CF00400147081C
:1000A0004101CE00400146084101CD005008400109
:1000B000BD0041014F084001BC0041014E08400114
:1000C000BB0041014D084001BA000030C1000030C2
:1000D000C0000030BF000030BE0093319223803159
:1000E0000318732874288D2801304101BB000030AB
:1000F000BC005008F3004F08F2004E08F1004D0814
:10010000F00088310320803173084101D00072086B
:10011000CF007108CE007008CD004101D301D40199
:100120006408C1006308C0003B083C04031D992813
:100130009A289E28671D9D289E28BC283B083C04C1
:10014000031DA328A428A9282B30A4000030A50053
:10015000AD282D30A4000030A50024084001CB00BC
:100160004B084301A00001304101D3070030D43DCA
:10017000FF30C007FF30C13D5008F3004F08F200C8
:100180004E08F1004D08F0009331132380317003C5
:100190007104031DCC28CD281F2940014A08BF3E09
:1001A000CB00FF3003180030CC0000304C021A3076
:1001B00003194B02031CDD28DF280130E028003042
:1001C000CD00CE014D084101A60040014E0841017D
:1001D000A700260827040319EE28EF28F92839304C
:1001E000F000A030F1005308A03E9D31462580313B
:1001F00002294130F000A030F1005308A03E9D31AB
:1002000046258031FD304101C007FF30C13DA0309F
:100210004001CB004B08A400410141084001A60069
:10022000410140084001A50041013A089131E72110
:10023000803140012508C7002408C600FF2E410177
:100240005008F3004F08F2004E08F1004D08F0008E
:1002500093311323803170087104031D3029312933
:10026000832940014A08BF3ECB00FF30031800300D
:10027000CC0000304C021A3003194B02031C4129F8
:100280004329013044290030CD00CE014D08410101
:10029000A80040014E084101A900280829040319BB
:1002A000522953295D293D30F000A030F100530858
:1002B000A03E9D314625803166294530F000A030B2
:1002C000F1005308A03E9D3146258031FD304101AB
:1002D000C007FF30C13DA0304001CB004B08A40057
:1002E000410141084001A600410140084001A5002C
:1002F00041013A089131E721803140012508C700CA
:100300002408C600FF2E3F304101D8008030D700BE
:100310000030D6000030D500D101D2015008F300E2
:100320004F08F2004E08F1004D08F0000030F700D1
:100330000030F6000030F5000030F4009E31B926A0
:1003400080310318A429A5295A2AD6294130400111
:10035000A3002030A2000030A1000030A000410125
:1003600058084001A700410157084001A60041017B
:1003700056084001A500410155084001A4008A31FA
:10038000FC228031400123084101D80040012208AD
:100390004101D700400121084101D6004001200859
:1003A0004101D5000130D1070030D23D4101500854
:1003B0004001BD0041014F084001BC0041014E0811
:1003C0004001BB0041014D084001BA004130A3008B
:1003D0002030A2000030A1000030A00041015808E8
:1003E0004001A700410157084001A60041015608FD
:1003F0004001A500410155084001A4008A31FC22BA
:10040000803140012308C1002208C0002108BF003C
:100410002008BE009331922380310318102A112A3C
:10042000A629332A4130F3002030F2000030F100D9
:100430000030F00041015808F7005708F600560850
:10044000F5005508F40096314C26803173084101BF
:10045000D8007208D7007108D6007008D500FF30A8
:10046000D107FF30D23D410150084001BD0041019C
:100470004F084001BC0041014E084001BB00410152
:100480004D084001BA00410158084001C100410136
:1004900057084001C000410156084001BF0041011A
:1004A00055084001BE00933192238031031C592A24
:1004B0005A2A122A40014A08CB00CC014B08F60008
:1004C0004C08F7009D318A25803176084001CD0027
:1004D0004D084101C20042084001CB004B084101D8
:1004E000BF0067304206031D762A772A9C2A6508DA
:1004F0006604031D7C2A7D2A812A0130E500003034
:10050000E6006608803A4001CB0080304B02031DB4
:100510008C2A01304101650203188F2A902A962AFD
:1005200006304101BD000030BE00A12A410166082D
:10053000BE006508BD00A12AE61B9F2AA02A902ABA
:10054000962A67304206031DA62AA72ADF2A5208E8
:10055000803A4001CB007F304B02031DB22AFC30B1
:1005600041015102031CB52AB62AD92A41013D088E
:10057000FF3E4001CB00FF3041013E3D4001CC0039
:100580004C08803ACD0041015208803A40014D02AA
:10059000031DCE2A4101510840014B02031CD12A00
:1005A000D22AD92A66304001CB004B084101BF0056
:1005B000DF2A65304001CB004B084101BF003E08F7
:1005C000B5003D08B40067304206031DE82AE92A59
:1005D000F32A66303F06031DEE2AEF2AF72AD21FC0
:1005E000F22AF32AF72A0130B4070030B53D66300D
:1005F0003F06031DFC2AFD2A152BD21F002B012BC1
:100600000B2B3F30D8008030D7000030D6000030B0
:10061000D500D101D201673042060319102B112BEE
:10062000152B5108B4075208B53DCB01CC01500839
:10063000C6004F08C5004E08C4004D08C300580846
:10064000A3005708A2005608A1005508A000D62B09
:1006500041015808F3005708F2005608F100550808
:10066000F0004608F7004508F6004408F500430886
:10067000F40096314C26803173084001B0007208B6
:10068000AF007108AE007008AD00873100278031DF
:10069000400130084101CA0040012F084101C90052
:1006A00040012E084101C80040012D084101C7004A
:1006B0004A08F3004908F2004808F1004708F00032
:1006C00092319F22803171084101B9007008B80051
:1006D0004A084001A700410149084001A600410124
:1006E00048084001A500410147084001A40041011C
:1006F00058084001A300410157084001A2004101F0
:1007000056084001A100410155084001A0008A316E
:10071000FC22803140012308BD002208BC002108D2
:10072000BB002008BA00410146084001C100410158
:1007300045084001C000410144084001BF0041019B
:1007400043084001BE009C31E424803140013D0853
:100750004101C60040013C084101C50040013B0881
:100760004101C40040013A084101C3004130F30097
:100770002030F2000030F1000030F0005808F7009F
:100780005708F6005608F5005508F40096314C2637
:10079000803173084101D8007208D7007108D60073
:1007A0007008D5000130CB070030CC3D4C08803AB2
:1007B0004001CB0041013508803A40014B02031D46
:1007C000E42B410134084B02031CE72BE82B282BB8
:1007D00040304001A300A030A2000030A100003052
:1007E000A000410158084001A700410157084001FD
:1007F000A600410156084001A500410155084001ED
:10080000A4008A31FC228031400123084101CA0042
:10081000400122084101C900400121084101C800EE
:10082000400120084101C70046084001BD004101C8
:1008300045084001BC00410144084001BB004101A2
:1008400043084001BA0041014A084001C10041018A
:1008500049084001C000410148084001BF00410172
:1008600047084001BE009331922380310318392C90
:100870003A2C442C00304101CA000030C90000303D
:10088000C8000030C700692C41014608F300450844
:10089000F2004408F1004308F0004A08F700490854
:1008A000F6004808F5004708F4009E31B92680316B
:1008B000031C5B2C5C2C692C41013818602C612CCA
:1008C000692C0030CA000030C9000030C800003078
:1008D000C70041014A08F3004908F2004808F10046
:1008E0004708F0005008F7004F08F6004E08F500E2
:1008F0004D08F4008831BD20803173084101C600E5
:100900007208C5007108C4007008C3002308D8002D
:100910002208D7002108D6002008D50065303F0600
:100920000319932C942C992C5208B7005108B60047
:100930009B2CB601B701B201B301B001B101CB01EB
:10094000CC01C62D41015808F3005708F2005608A3
:10095000F1005508F0004608F7004508F600440885
:10096000F5004308F40096314C26803173084001AD
:10097000B0007208AF007108AE007008AD0087319A
:1009800000278031400130084101CA0040012F0892
:100990004101C90040012E084101C80040012D0855
:1009A0004101C7004A08F3004908F2004808F10075
:1009B0004708F00092319F22803171084101B9004F
:1009C0007008B800671AE52CE62CFB2C38083904AF
:1009D000031DEB2CEC2CFB2C67304206031DF12C85
:1009E000F22CFB2CB71FF52CF62CFB2C0130B0079A
:1009F0000030B13D542D32083304031D002D012D6C
:100A0000382DB71F042D052D382D2E304001CB0079
:100A100041015308A03E86000130870040014B0889
:100A2000810001304101D3070030D43DFF30C007C1
:100A3000FF30C13D0130B2000030B300382D3030FE
:100A40004001CB0041015308A03E860001308700E1
:100A500040014B08810001304101D3070030D43DF3
:100A6000FF30C007FF30C13DFF30B007FF30B13D60
:100A700030083104031D3D2D3E2D1F2D3808303E1A
:100A80004001CB0041015308A03E860001308700A1
:100A900040014B08810001304101D3070030D43DB3
:100AA000FF30C007FF30C13D4A084001A7004101A7
:100AB00049084001A600410148084001A500410144
:100AC00047084001A400410158084001A30041012A
:100AD00057084001A200410156084001A100410110
:100AE00055084001A0008A31FC22803140012308D2
:100AF000BD002208BC002108BB002008BA0041014B
:100B000046084001C100410145084001C0004101C3
:100B100044084001BF00410143084001BE009C3130
:100B2000E424803140013D084101C60040013C08F9
:100B30004101C50040013B084101C40040013A08A1
:100B40004101C3004130F3002030F2000030F100D9
:100B50000030F0005808F7005708F6005608F50076
:100B60005508F40096314C26803173084101D800B5
:100B70007208D7007108D6007008D500FF30B6079C
:100B8000FF30B73D0130CB070030CC3D4C08803AF8
:100B90004001CB0041013508803A40014B02031D62
:100BA000D42D410134084B020318D72DD82DE82D40
:100BB00041015408803A4001CB0080304B02031DB4
:100BC000E42D4B3041015302031CE72DE82DA22CEC
:100BD000410132083304031DEE2DEF2D042E671E54
:100BE000F22DF32D042E2E304001CB00410153088D
:100BF000A03E86000130870040014B088100013093
:100C00004101D3070030D43D5308A03E8600013097
:100C10008700810165303F06031D0F2E102EE82E40
:100C20004F30CB000030CC004B08A03E8600013096
:100C300087008101BB01BC01D21F1F2E202E292E4F
:100C40000130BB000030BC00D109D209D10A031920
:100C5000D20A0230BD000030BE00642EFF304101D8
:100C6000CB07FF30CC3D0A30F0000030F1005208D5
:100C7000F3005108F2009F31572780317008303E51
:100C80004001CB0041014B08A03E860001308700A7
:100C900040014B0881000A30F0000030F1004101B2
:100CA0005208F3005108F20092314022803171085D
:100CB0004101D2007008D100FF30BD07FF30BE3DBA
:100CC000FF30C007FF30C13D51085204031D692E9B
:100CD0006A2E2E2E3E08803A4001CB0080304B0217
:100CE000031D752E013041013D020318782E792E27
:100CF0002E2EFF304101CB07FF30CC3D3B083C049A
:100D0000031D832E842E892E2B30AA000030AB00C9
:100D10008D2E2D30AA000030AB002A084001CB00F8
:100D200041014B08A03E86000130870040014B087E
:100D30008100FF304101C007FF30C13DFF30CB07CC
:100D4000FF30CC3D40014A08BF3ECB00FF300318C6
:100D50000030CC0000304C021A3003194B02031C47
:100D6000B22EB42E0130B52E0030CD00CE014D088C
:100D70004101AE0040014E084101AF002E082F0492
:100D8000031DC32EC42EC92E6530AC000030AD004B
:100D9000CD2E4530AC000030AD002C084001CB001A
:100DA00041014B08A03E86000130870040014B08FE
:100DB0008100FF304101C007FF30C13D4B08A03E1C
:100DC000F0000130F1005308A03E9D3146258031EE
:100DD000A0304001CB004B08A40041014108400174
:100DE000A600410140084001A50041013A089131A7
:100DF000E721803140012508C7002408C60008000B
:100E0000420123084001C000420122084001BF0006
:100E1000420121084001BE00420120084001BD00FE
:100E20003008C0002F08BF002E08BE002D08BD00EE
:100E30003D08B1003E08B2003F08B3004008B400CE
:100E40001730B436B30CB20CB10C890B212FFF3024
:100E50003105B50000303205B6003508813EBB00D3
:100E6000FF30363DBC003C08803AB1008030310292
:100E7000031D3C2F17303B02031C3F2F402F412FF7
:100E8000EA2F4001BC1B452F462FA32FFF30B10096
:100E9000FF30B2007F30B3000030B4003B0A542F63
:100EA000B437B30CB20CB10C890B502F3408BA0014
:100EB0003308B9003208B8003108B7003D083705DB
:100EC000B1003E083805B2003F083905B3004008BC
:100ED0003A05B4003408330432043104031D712F81
:100EE000722F732F402F3D08B1003E08B2003F081B
:100EF000B3004008B4001F30B436B30CB20CB10CD0
:100F0000890B7C2F34083304320431040319892FF0
:100F10008A2F922F3708BD073808BE3D3908BF3DDC
:100F20003A08C03D3709B1003809B2003909B300A9
:100F30003A09B4003108BD053208BE053308BF05C3
:100F40003408C005E22F3D08B1003E08B2003F085A
:100F5000B3004008B4001F30B436B30CB20CB10C6F
:100F6000890BAC2F3408330432043104031DB92F2C
:100F7000BA2FC32F0030C0000030BF000030BE00C9
:100F80000030BD00E22F3D08B1003E08B2003F082E
:100F9000B3004008B4000130B135B20DB30DB40D4B
:100FA000890BCC2F34083304320431040319D92FB0
:100FB000DA2FE22FBF30C0008030BF000030BE000B
:100FC0000030BD004008B0003F08AF003E08AE0052
:100FD0003D08AD000800F20040010E1172089C317E
:100FE000C424873140018E152A30F1008E30890BE0
:100FF000F72FF10BF72F40018E11080008000800B1
:101004000800730872047104700403190A280B2879
:101014000D288030F30608004001A701A801A001B3
:10102400A10118280130F6070030F73DA601A60AF1
:1010340076088400770885001200203A03192328D3
:101044002428392876088400770885000008F73EAC
:10105400F800FF3003180030F90000307902053041
:1010640003197802031C372838283928A6012608D2
:10107400F800F9017808A2007908A30022082304E3
:10108400031D45284628142850280130A0000030AC
:10109400A1000130F6070030F73D8428760884006B
:1010A400770885000008F800F9017908003A031967
:1010B4005C28842878082B3A03194B28063A03192C
:1010C4004728842876088400770885000008F800FB
:1010D4002808F1002708F0000A30F2000030F3007D
:1010E4009C31A52488317108FA0078087002F9004F
:1010F400031CFA037908303E4001A70000307A3D12
:10110400A8004B2876088400770885000008D03EA4
:10111400F800FF3003180030F900003079020A307B
:1011240003197802031C9728992801309A28003063
:10113400FA00FB017A08A4007B08A5002408250412
:10114400031DA528A628642820082104031DAB2814
:10115400AC28B8282709F8002809F900F80A031967
:10116400F90A7808F6007908F700BC282808F7007F
:101174002708F6000800730880394001A000200801
:10118400F8007335A0002008FA00F21FCA28CB2803
:10119400CC287A147A080319D028D128E1287A0AAD
:1011A400031DD528D628DE280030F3000030F200D5
:1011B4000030F1000030F000F217F301E9280030AC
:1011C400F3000030F2000030F1000030F000770846
:1011D4008039A0002008F900790878060319F3285B
:1011E400F428F52878177735A0002008F900F61FB1
:1011F400FC28FD28FE2879147908031902290329FB
:101204001329790A031D0729082910290030F7003A
:101214000030F6000030F5000030F400F617F70156
:101224001B290030F7000030F6000030F5000030D4
:10123400F4007A0879020318202921296529781FE6
:101244002429252929298030A0002008F8067A08B5
:10125400A0002008FB007908A0002008FA007B0801
:10126400A0002008F9007008A0002008FB00740802
:10127400A0002008F0007B08A0002008F4007108FA
:10128400A0002008FB007508A0002008F1007B08DE
:10129400A0002008F5007208A0002008FB007608D2
:1012A400A0002008F2007B08A0002008F6007308C4
:1012B400A0002008FB007708A0002008F3007B08AA
:1012C400A0002008F700FB017908A000A101210873
:1012D400A3007A082002A200031CA3032308803A77
:1012E400A40080302402031D79291A302202031C31
:1012F4007C297D29B7297308720471047004031DC5
:10130400842986290130872900304001A000200863
:10131400FB000030F3000030F2000030F100003038
:10132400F0007908A0002008FA00BD297B1C9B2945
:101334009C29A3297B3601384001A0002008FB002A
:10134400A5290310FB0C701CA829A929AA29FB179D
:1013540001304001A000F337F20CF10CF00CA00BAB
:10136400AD290130A0002008FA0779087A02031C8D
:10137400BC29BD299829781BC029C129FB297A08D1
:10138400031DC529C629CF290030F3000030F2001F
:101394000030F1000030F000FB2A7408F0077508F3
:1013A400F13D7608F23D7708F33D731CDA29DB2919
:1013B400882A7B1CDE29DF29E6297B360138400197
:1013C400A0002008FB00E8290310FB0C701CEB298B
:1013D400EC29ED29FB1701304001A000F337F20C92
:1013E400F10CF00CA00BF0290130A0002008FA0742
:1013F400882A7308803A4001A0007708803A2002C6
:10140400031D0E2A76087202031D0E2A7508710246
:10141400031D0E2A740870020318112A122A4A2A7C
:10142400FF30A000FF30A100FF30A200FF30A30076
:1014340070087402A4007108753BA5007208763B1D
:10144400A6007308773BA7002408A0072508A13D40
:101454002608A23D2708A33D2308F3002208F20032
:101464002108F1002008F0008030A0002008F806D0
:10147400FB09FB0A7B08031D402A412A522A01303A
:10148400F0070030F13D0030F23D0030F33D522AC8
:101494007408F0027508F13B7608F23B7708F33BD9
:1014A4007308720471047004031D592A5A2A842A89
:1014B4007B08031D5E2A5F2A842A0030F300003073
:1014C400F2000030F1000030F000FB2A0130F0356A
:1014D400F10DF20DF30D890B692AFB1F722A732A91
:1014E400742A70147B1C772A782A7B2A0314FB0D38
:1014F4007D2A0310FB0D7A080319812A822A842A83
:101504000130FA02F21F872A882A682AF901FB1F90
:101514008C2A8D2A9B2A7B087F390319922A932AC5
:10152400962AF901F90A9B2A701C992A9A2A9B2A5D
:10153400932A790803199F2AA02ACE2A0130F0079A
:101544000030F13D0030F23D0030F33D731CAB2A16
:10155400AC2ACE2A70084001A0007108A1007208CC
:10156400A2007308A3000130A400A337A20CA10CAD
:10157400A00CA40BB72A2308F3002208F2002108C8
:10158400F1002008F0007A0A0319C92ACA2ACE2ACF
:101594000130A0002008FA077A0A0319D22AD32AB4
:1015A400D82A7A08031DD72AD82AE62A0030F3005D
:1015B4000030F2000030F1000030F0007A08031D22
:1015C400E42AE52AE62AF8017A1CE92AEA2AEC2A1E
:1015D400F217F12A7F304001A0002008F2057A3684
:1015E4004001A0002008F300F81FF92AFA2AFB2A78
:1015F400F3170800400123088039A8002808AD002B
:101604002335A8002808B300A21F092B0A2B0B2B93
:101614003314330803190F2B102B1F2B330A031D0C
:10162400142B152B1D2B0030A3000030A20000301A
:10163400A1000030A000A217272B0030A300003027
:10164400A2000030A1000030A00027088039A800C3
:101654002808AD062735A8002808AE00A61F332B9E
:10166400342B352B2E142E080319392B3A2B492BE6
:101674002E0A031D3E2B3F2B472B0030A7000030C2
:10168400A6000030A5000030A400A617512B00309E
:10169400A7000030A6000030A5000030A4002E08EA
:1016A4000319552B562B5B2B3308031D5A2B5B2B2D
:1016B400642B0030A3000030A2000030A1000030F1
:1016C400A000522D2008A8002808F00026089D310B
:1016D40067258A3171084001B9007008B8003808DC
:1016E400A800A901AA01AB012B08B2002A08B10085
:1016F4002908B0002808AF003908A800A901AA01E8
:10170400AB012B08B7002A08B6002908B500280841
:10171400B4002108A8002808F00025089D31672599
:101724008A3171084001B9007008B8003808A8006F
:10173400A901AA01AB012808AF072908B03D2A086E
:10174400B13D2B08B23D3908A800A901AA01AB019B
:101754002808B4072908B53D2A08B63D2B08B73D2B
:101764002208A8002808F00024089D3167258A3142
:1017740071084001B9007008B8003808A800A90130
:10178400AA01AB012808AF072908B03D2A08B13DDA
:101794002B08B23D3908A800A901AA01AB01280809
:1017A400B4072908B53D2A08B63D2B08B73D0830D3
:1017B400AF35B00DB10DB20D890BDA2B2108A8009D
:1017C4002808F00024089D3167258A3171084001FA
:1017D400B9007008B8003808AF073908B03D0030C8
:1017E400B13DB23D2008A8002808F00025089D312D
:1017F40067258A3171084001B9007008B8003808BB
:10180400AF073908B03D0030B13DB23D0830AF35C7
:10181400B00DB10DB20D890B092C2008A8002808C1
:10182400F00024089D3167258A3171084001B90010
:101834007008B8003808AF073908B03D0030B13D32
:10184400B23D2108A8002808F00026089D3167252C
:101854008A3171084001B9007008B8003808B4072B
:101864003908B53D0030B63DB73D2208A800280828
:10187400F00025089D3167258A3171084001B900BF
:101884007008B8003808B4073908B53D0030B63DD3
:10189400B73D2208A8002808F00026089D316725D6
:1018A4008A3171084001B9007008B8003808A800EE
:1018B4003908A900AA01AB010830A835A90DAA0D61
:1018C400AB0D890B5F2C2808B4072908B53D2A08FD
:1018D400B63D2B08B73D2F08A8003008A9003108F1
:1018E400AA003208AB001830AB36AA0CA90CA80C1D
:1018F400890B762C2808B4072908B53D2A08B63D7B
:101904002B08B73D0830AF35B00DB10DB20D890BC2
:10191400852C33082E07A800A901A90D2808823EAA
:10192400B800FF30293DB900AE2C0130B435B50DF7
:10193400B60DB70D890B982CB21FA12CA22CA32C89
:1019440034140130AF35B00DB10DB20D890BA42C98
:10195400FF30B807FF30B93DB61FB12CB22C972C1D
:10196400AE01B21FB62CB72CD32CFF302F05A80024
:10197400FF303005A900FF303105AA007F30320561
:10198400AB002B082A04290428040319CA2CCB2CE5
:10199400CE2CAE01AE0AD32C341CD12CD22CD32C99
:1019A400CB2C2E080319D72CD82C002D0130B407CA
:1019B4000030B53D0030B63D0030B73D371CE32C58
:1019C400E42C002D3408A8003508A9003608AA0024
:1019D4003708AB000130AC00AB37AA0CA90CA80C3B
:1019E400AC0BEE2C2B08B7002A08B6002908B5006A
:1019F4002808B4000130B8070030B93D3908803AEE
:101A0400A80080302802031D092DFF303802031C72
:101A14000C2D0D2D172D7F304001B7008030B600FE
:101A24000030B5000030B400462D40013908803A3A
:101A3400A80080302802031D212D0130380203182C
:101A4400242D252D302D00304001B7000030B60084
:101A54000030B5000030B400AD01462D4001380817
:101A6400A8002808B300FF30B405FF30B5057F3067
:101A7400B6050030B705331C402D412D422DB61755
:101A84003336A8002808B7002D08A8002808B70492
:101A94003708A3003608A2003508A1003408A000C6
:101AA40008004001E5004F0886008701403FD1004F
:101AB400413FD20051088400520885001200253AA3
:101AC400031D652D662DDC2F4F088600870101302C
:101AD400810741310318810A4101E301E401E7016F
:101AE400E801FF30E500FF30E60040014F088600C2
:101AF4008701403FD100413FD20051088400520881
:101B0400850012002A3A031D882D892DAA2D4F081D
:101B1400860087010130810741310318810A50088A
:101B240086000130870001088400850102308107A6
:101B3400003F4101E300013FE400E41FA22DA32D77
:101B4400EC2D6714E309E409E30A0319E40AEC2D14
:101B54004F0886008701403FF600413FF700883177
:101B64000E208D3177084101E4007608E300C22D90
:101B74004F08860087010130810741310318810A2B
:101B840040014F0886008701403FD100413FD20009
:101B940051088400520885000008D03ED300FF306D
:101BA40003180030D400003054020A3003195302E1
:101BB400031CDD2DDF2D0130E02D0030D500D601D2
:101BC4005508D7005608D80057085804031DEB2DB4
:101BD400EC2DBA2D40014F0886008701403FD1000B
:101BE400413FD200510884005208850012002E3A69
:101BF400031DFD2DFE2D742E4101E501E60140017A
:101C04004F08860087010130810741310318810A9A
:101C14004F0886008701403FD100413FD200510860
:101C240084005208850012002A3A031D1A2E1B2E26
:101C3400322E4F0886008701013081074131031895
:101C4400810A50088600013087000108840085015C
:101C540002308107003F4101E500013FE600742E98
:101C64004F0886008701403FF600413FF700883166
:101C74000E208D3177084101E6007608E5004A2EF2
:101C84004F08860087010130810741310318810A1A
:101C940040014F0886008701403FD100413FD200F8
:101CA40051088400520885000008D03ED300FF305C
:101CB40003180030D400003054020A3003195302D0
:101CC400031C652E672E0130682E0030D500D60126
:101CD4005508D9005608DA0059085A04031D732E12
:101CE400742E422E40014F0886008701403FD100E8
:101CF400413FD20051088400520885000008D300F7
:101D0400D4015308F6005408F7009D318A258D311B
:101D140076084001D5005508E10061080319932EA7
:101D2400942ED32E4F0886008701403FD100413FB7
:101D3400D20001305107840052080318520A85006A
:101D44000008D300D4015308F6005408F7009D316D
:101D54008A258D3176084001D5005508E2006208D5
:101D64000319B52EB62ED32E4F0886008701403FA7
:101D7400D100413FD20002305107840052080318B9
:101D8400520A85000008D300D4015308F600540811
:101D9400F7009D318A258D3176084001D50055081C
:101DA400E30066306106031DD82ED92E172F4F0885
:101DB40086008701403FD100413FD2005108840092
:101DC400520885000008D3005308E4004F08860039
:101DD40087010130810741310318810A50088600C8
:101DE4000130870001088400850104308107003F29
:101DF400DD00013FDE00023FDF00033FE00060083A
:101E0400C9005F08C8005E08C7005D08C600640812
:101E1400D1005108CA006508803142208D3140014B
:101E24004708D0004608CF00FF2F4930F000A0300B
:101E3400F1000230F2000030F300613091318F2163
:101E44008D3170087104031D282F292FA62F4001FE
:101E54004F0886008701403FD100413FD200013046
:101E64005107840052080318520A85000008D30061
:101E74005308E4004F0886008701403FD100413FEA
:101E8400D20051088400520885000008BF3ED300E8
:101E9400FF3003180030D400003054021A30031904
:101EA4005302031C562F582F0130592F0030D500F0
:101EB400D6015508DB005608DC005B085C040319F6
:101EC400642F652F772F50088600013087000108A2
:101ED4008400850104308107003FDD00013FDE00FE
:101EE400023FDF00033FE000882F500886000130E6
:101EF400870001088400850104308107003FDD006C
:101F0400013FDE00023FDF00033FE0004F08860090
:101F140087010230810741310318810A6008C90032
:101F24005F08C8005E08C7005D08C6006408D100E9
:101F34005108CA006508803142208D3140014708AC
:101F4400D0004608CF00FF2F40014F0886008701CC
:101F5400403FD100413FD20051088400520885001F
:101F64001200253A031DB72FB82FD12F4F08860032
:101F740087010130810741310318810A2530F000BF
:101F84000030F1006508D1005108F2009F31AA2702
:101F94008D3101304001CF000030D000FF2F4F08B9
:101FA400860087010130810741310318810ACF017E
:101FB400D001FF2F4F0886008701403FD100413FE9
:101FC400D20051088400520885000008D300D401CF
:101FD4005308F0005408F1006508D5005508F200D4
:101FE4009F31AA278D3140014F08860087010130B7
:0C1FF400810741310318810ACB2F08003F
:102004004001EB006708ED006608EC004101E101C6
:10201400E20120286C30E9006908CF006808EA0072
:102024006A08D0006B088D315325903140014F0868
:102034004101E107400150084101E23D40016C08C3
:1020440084006D0885001200031D29282A280C2805
:10205400410162084001E700410161084001E600D6
:10206400080040010C1E3728382845288C1E3B28C0
:102074003C284528FF304201D507FF30D63DFF30CC
:10208400D73DFF30D83D40010C1E49284A28572827
:102094008C1A4D284E28572801304201D5070030AC
:1020A400D63D0030D73D0030D83D40010C1A5B28A6
:1020B4005C2869288C1A5F2860286928FF3042014F
:1020C400D507FF30D63DFF30D73DFF30D83D400126
:1020D4000C1A6D286E287B288C1E712872287B2888
:1020E40001304201D5070030D63D0030D73D0030E5
:1020F400D83D42014F0850040319812882288728BB
:1021040050088A004F080A0090317E013F120800EF
:1021140040018C1E8E288F289C280C1E9228932800
:102124009C2801304201D5070030D63D0030D73D10
:102134000030D83D40018C1EA028A128AE280C1ADE
:10214400A428A528AE28FF304201D507FF30D63D8C
:10215400FF30D73DFF30D83D40018C1AB228B32858
:10216400C0280C1AB628B728C02801304201D50768
:102174000030D63D0030D73D0030D83D40018C1AA8
:10218400C428C528D2280C1EC828C928D228FF3044
:102194004201D507FF30D63DFF30D73DFF30D83D53
:1021A40042014D084E040319D828D928DE284E08C8
:1021B4008A004D080A0090317E01BF1208004001D8
:1021C4000C1FE528E628F3288C1FE928EA28F328C1
:1021D400FF304201D107FF30D23DFF30D33DFF3005
:1021E400D43D40010C1FF728F82805298C1BFB2837
:1021F400FC28052901304201D1070030D23D0030CE
:10220400D33D0030D43D40010C1B09290A2917296C
:102214008C1B0D290E291729FF304201D107FF30ED
:10222400D23DFF30D33DFF30D43D40010C1B1B2970
:102234001C2929298C1F1F29202929290130420101
:10224400D1070030D23D0030D33D0030D43D4201AF
:102254004B084C0403192F29302935294C088A00CE
:102264004B080A0091317E013F13080040018C1F86
:102274003C293D294A290C1F402941294A2901307A
:102284004201D1070030D23D0030D33D0030D43D6F
:1022940040018C1F4E294F295C290C1B52295329BC
:1022A4005C29FF304201D107FF30D23DFF30D33DDE
:1022B400FF30D43D40018C1B602961296E290C1B21
:1022C400642965296E2901304201D1070030D23DCD
:1022D4000030D33D0030D43D40018C1B722973295A
:1022E40080290C1F762977298029FF304201D107E4
:1022F400FF30D23DFF30D33DFF30D43D4201490889
:102304004A040319862987298C294A088A0049081E
:102314000A0091317E01BF130800F5007508F4002E
:102324007408F8007108F7007008F6000130F20232
:102334000030F33B720A031DA329730A031DA3296A
:10234400A429B329F001F101E6290130F40074084D
:10235400F8070130F6070030F73D0130F202003093
:10236400F33B78088600870101080319BA29BB29C1
:10237400D929760884007708850012000319C32937
:10238400C429D929720873040319C929CA29D92966
:1023940076088400770885000008F4007808860031
:1023A4008701010874060319D829D929A7297808AF
:1023B40086008701760884007708850000080102FA
:1023C400F000F101031CF10308004001AB004101DE
:1023D400671CED29EE29F72940012B08FC007C0835
:1023E400F80024089D31AF2591314001A61BFB293B
:1023F400FC29012A2608AA002508A900032AA90104
:10240400AA01A701A801172A2030F0000030F1002A
:1024140040012B08FC007C08F2009F31AA2791316F
:1024240001304001A7070030A83D2808803AFC008D
:102434002A08803A7C02031D212A29082702031C4A
:10244400242A252A062A41016718292A2A2A332AF6
:1024540040012B08FC007C08F80024089D31AF25BE
:102464009131400124089C316E24913140012908A6
:102474007007A4002A08713DA5000800F601F11FA9
:10248400442A452A4C2AF009F109F00A0319F10AF1
:10249400F601F60AF31F4F2A502A592AF209F309C2
:1024A400F20A0319F30A0130F4007408F606F7017E
:1024B400F801700871040319602A612A902AF50151
:1024C400F50A6D2A0130F035F10D890B652A0130CA
:1024D400F4007408F507F11F702A712A642A013088
:1024E400F735F80D890B722A71087302031D7C2AD3
:1024F40070087202031C7F2A802A852A7008F2025F
:102504007108F33B77140130F136F00C890B862AFD
:102514000130F502031D8F2A902A712A76080319C7
:10252400942A952A9A2AF709F809F70A0319F80A46
:102534007808F1007708F00008000310720D730D9D
:10254400F4007408FA007A08031DA92AAA2AB32AF7
:102554000030F3000030F2000030F1000030F000F1
:10256400122B7008F4007108F5007208F600730865
:10257400F7001F30F736F60CF50CF40C890BBC2A67
:102584007408F8007808F900F217FF30F005FF30FE
:10259400F105FF30F2050030F3059630FA02FA1F18
:1025A400D42AD52AED2A7A08803A973E0318DB2AE2
:1025B400DC2ADD2AAA2A0130F336F20CF10CF00CE5
:1025C400890BDE2A0130F4007408FA07031DEB2A94
:1025D400EC2ADD2A022B20307A02031CF22AF32A89
:1025E400FD2AAA2A0130F035F10DF20DF30D890B05
:1025F400F52A0130FA027A08031D012B022BF42A72
:1026040079080319062B072B122BF009F109F2099B
:10261400F309F00A0319F10A0319F20A0319F30A78
:102624000800420127084001A50042012608400194
:10263400A400420125084001A300420124084001EE
:10264400A2007308A5007208A4007108A300700812
:10265400A2002208F4002308F5002408F600250847
:10266400F7001730F736F60CF50CF40C890B342B05
:10267400FF307405A00000307505A1002008210476
:10268400031D452B462B672B2208F4002308F50075
:102694002408F6002508F7000130F435F50DF60D91
:1026A400F70D890B4F2B7708760475047404031D0A
:1026B4005C2B5D2B622B0230F0000030F100912B7B
:1026C4000330F0000030F100912B200A2104031D97
:1026D4006C2B6D2B8D2B2208F4002308F5002408A5
:1026E400F6002508F7000930F435F50DF60DF70D61
:1026F400890B762B77087604750474040319832BED
:10270400852B0130862B0030F800F9017808F000A1
:102714007908F100912B0430F0000030F10008003A
:10272400003040013A05C20000303B05C300803050
:102734003C05C4007F303D05C500450844044304FE
:102744004204031DA62BA72BAF2B0030BD00003085
:10275400BC000030BB000030BA0000303E05C200AF
:1027640000303F05C30080304005C4007F30410580
:10277400C5004508440443044204031DC22BC32B73
:10278400CB2B0030C1000030C0000030BF0000304F
:10279400BE00BD1FCE2BCF2BE72B0030C200003074
:1027A400C3000030C4008030C5003A08C2023B08B0
:1027B400C33B3C08C43B3D08C53B4508BD00440839
:1027C400BC004308BB004208BA00C11FEA2BEB2B34
:1027D400032C0030C2000030C3000030C40080303D
:1027E400C5003E08C2023F08C33B4008C43B410841
:1027F400C53B4508C1004408C0004308BF00420867
:10280400BE008030BD068030C10641083D02031D74
:10281400152C40083C02031D152C3F083B02031DE8
:10282400152C3E083A020318182C192C1B2C0310E3
:102834001C2C03140800F80078080319222C232CFC
:10284400372CF31F262C272C372C7009FA0071091A
:10285400FB007209FC007309FD00FA0A0319FB0A64
:102864000319FC0A0319FD0A3F2C7308FD007208C2
:10287400FC007108FB007008FA007308720471040C
:102884007004031D462C472C502C0030F3000030FC
:10289400F2000030F1000030F000C82C9630F40053
:1028A4007408F900602C0130F4007408F907013051
:1028B400FD36FC0CFB0CFA0C890B5A2CFE307D0502
:1028C400031D652C662C552C7A2C0130F4007408F9
:1028D400F9070130FA070030FB3D0030FC3D0030C1
:1028E400FD3D0130FD36FC0CFB0CFA0C890B742CFD
:1028F400FF307D05031D7F2C802C672C8A2C013032
:10290400F9020130FA35FB0DFC0DFD0D890B842C09
:10291400FC1B8D2C8E2C942C023079020318932CE2
:10292400942C812C7918972C982CA02CFF30FA0524
:10293400FF30FB057F30FC05FF30FD050310F90C6B
:102944007908F400F501F601F7011830F435F50DB6
:10295400F60DF70D890BA82C7408FA047508FB040E
:102964007608FC047708FD0478080319BA2CBB2CFC
:10297400C02CF31FBE2CBF2CC02CFD177D08F30008
:102984007C08F2007B08F1007A08F00008009C3112
:10299400342494318B170B179E31312694319C319A
:1029A40022249431F301F30A01309E3173269431C9
:1029B4002F30F500A030F6009C3188249431F301C7
:1029C400F30A02309E31732694312430F500A0308E
:1029D400F6009C318824943166304101E000763061
:1029E400DF00C130890BF42CDF0BF42CE00BF42C4A
:1029F4009C31222494314101691C012D022D352D75
:102A04003B304001A300A330A200D730A1000A301C
:102A1400A00042015408F3005308F2005208F100E8
:102A24005108F000013094311D24943173084001A1
:102A3400A7007208A6007108A5007008A4008A31D6
:102A4400FC229431400123084201AF0040012208D6
:102A54004201AE00400121084201AD0040012008BE
:102A64004201AC00672D3B304001A3002330A2009B
:102A7400D730A1000A30A00042015408F3005308E3
:102A8400F2005208F1005108F000013094311D2485
:102A9400943173084001A7007208A6007108A500CC
:102AA4007008A4008A31FC229431400123084201B9
:102AB400AF00400122084201AE004001210842015A
:102AC400AD00400120084201AC003B304001A300AE
:102AD400A330A200D730A1000A30A0004201580858
:102AE400F3005708F2005608F1005508F0000130D1
:102AF40094311D24943173084001A7007208A60084
:102B04007108A5007008A4008A31FC2294314001A8
:102B140023084201AB00400122084201AA004001FF
:102B240021084201A900400120084201A8004101F6
:102B3400691C9D2D9E2DB72D1830D900A030DA00C8
:102B440042012F084101DE0042012E084101DD004F
:102B540042012D084101DC0042012C084101DB0047
:102B640030309E3104269431CF2D0030D900A0306E
:102B7400DA0042012F084101DE0042012E08410122
:102B8400DD0042012D084101DC0042012C08410115
:102B9400DB0030309E3104269431F301F30A013016
:102BA4009E31732694313030F5000130F6009C31AB
:102BB400882494310C304101D900A030DA0042015C
:102BC4002B084101DE0042012A084101DD004201D7
:102BD40029084101DC00420128084101DB003030B2
:102BE4009E3104269431F301F30A02309E31732698
:102BF40094313030F5000130F6009C318824943152
:102C040040010E18062E072E432E3D304101E000F0
:102C1400E130DF003F30890B0D2EDF0B0D2EE00B72
:102C24000D2E003240010E18182E192E432E41018C
:102C3400691C1D2E1E2E202E6910212E691441019F
:102C4400E914432E40010E18282E292E342E00306C
:102C54004201D4000030D3000030D2000030D10053
:102C64004101E91440018E18382E392E432E0030CC
:102C74004201D8000030D7000030D6000030D50023
:102C8400212E4101E91C472E482E242EE910FD2C4B
:102C94008031162877088039F80078084001A400AC
:102CA4007735F8007808AB00F61F592E5A2E5B2EA4
:102CB4002B142B0803195F2E602E702E2B0A031D74
:102CC400642E652E6D2E0030F7000030F6000030C3
:102CD400F5000030F400F617F701782E0030F70005
:102CE4000030F6000030F5000030F400730880393D
:102CF400F8007808A4067335F8007808AC00F21FD1
:102D0400842E852E862E2C142C0803198A2E8B2EA5
:102D14009B2E2C0A031D8F2E902E982E0030F3002C
:102D24000030F2000030F1000030F000F217F3013F
:102D3400A32E0030F3000030F2000030F100003028
:102D4400F0007308720471047004031DAA2EAB2EE4
:102D5400C42E0030F7000030F6000030F5000030DB
:102D6400F4008030F6047F30F7042408F800780873
:102D7400F7047708F3007608F2007508F100740888
:102D8400F000FF2F2B08031DC82EC92ED22E0030B1
:102D9400F3000030F2000030F1000030F000FF2FAB
:102DA4002B08F800F9017908FB002C087802FA00D6
:102DB400031CFB037A087F3EA50000307B3DA60080
:102DC4007708A3007608A2007508A1007408A00083
:102DD4000030F7000030F6000030F5000030F40059
:102DE4000030AA000030A9000030A8000030A7007D
:102DF400AC013A2F2C080319002F012F1B2F01308F
:102E0400A035A10DA20DA30D890B022F0130F435BD
:102E1400F50DF60DF70D890B092FAA1F122F132F8D
:102E2400142F74140130A735A80DA90DAA0D890B10
:102E3400152F73082302031D292F72082202031D74
:102E4400292F71082102031D292F70082002031C59
:102E54002C2F2D2F362F2A177008A0027108A13BA2
:102E64007208A23B7308A33B0130F8007808AC0752
:102E74001A302C02031C3F2F402FFC2E230822045F
:102E8400210420040319472F482F612F2714612F91
:102E94000130F435F50DF60DF70D890B4B2FAA1FF4
:102EA400542F552F562F74140130A735A80DA90D92
:102EB400AA0D890B572FFF30A507FF30A63DF61F3B
:102EC400642F652F4A2FAC01AA1F692F6A2F862F02
:102ED400FF302705F800FF302805F900FF302905E9
:102EE400FA007F302A05FB007B087A047904780411
:102EF40003197D2F7E2F812FAC01AC0A862F741C01
:102F0400842F852F862F7E2F2C0803198A2F8B2F31
:102F1400B32F0130F4070030F53D0030F63D0030AA
:102F2400F73D771C962F972FB32F7408F800750878
:102F3400F9007608FA007708FB000130FC00FB3743
:102F4400FA0CF90CF80CFC0BA12F7B08F7007A089B
:102F5400F6007908F5007808F4000130A507003080
:102F6400A63D2608803AF80080307802031DBC2F65
:102F7400FF302502031CBF2FC02FCD2FFF3040018F
:102F8400A5000030A6000030F7000030F600003045
:102F9400F5000030F40040012608803AF800803043
:102FA4007802031DD72F013025020318DA2FDB2FF7
:102FB400E72F4001A501A6010030F7000030F6001C
:102FC4000030F5000030F400A40140012508F800A9
:102FD4007808AB002B1CEF2FF02FF22FF617F62FEB
:102FE4007F30F8007808F6052B36F8007808F700EB
:0C2FF4002408F8007808F704BB2E080041
:1037DC0071084201D0007008CF0008007108420146
:1037EC00CE007008CD00080071084201CC007008B2
:1037FC00CB00080071084201CA007008C90008001B
:10380C00640080010131890B072C0034FE0012008A
:10381C001E00FE0B0D2C00344F01960197019801F0
:10382C0099019A019B010800E034B134FF34FF3454
:10383C00E034B134FF34FF3400308731EB279C3156
:10384C0001308731EB279C310800603051018D002D
:10385C008F01910106309300920108009C311224D3
:10386C009C319F3107279C319C312B249C310800C3
:10387C007008D03EF200FF30713DF300003073024F
:10388C000A3003197202031C4C2C4E2C01304F2CA5
:10389C000030F400F5017408F0007508F100080020
:1038AC007008BF3EF200FF30713DF3000030730230
:1038BC001A3003197202031C642C662C0130672C1D
:1038CC000030F400F5017408F0007508F1000800F0
:1038DC00F4007408F2007208F300782C0130F20046
:1038EC007208F40774088600013087000108031D74
:1038FC00802C812C742C73087402F000F101F01BE5
:10390C00F1030800F801F901992C75087807840077
:10391C007608793D850000089D31D8259C31013011
:10392C00F8070030F93D7508780784007608793D72
:10393C0085001200031DA32CA42C8B2C0800F40171
:10394C00F501701CAA2CAB2CAF2C7208F407730871
:10395C00F53D0130F235F30D890BB02C0130F13609
:10396C00F00C890BB52C70087104031DBE2CBF2CF8
:10397C00A72C7508F1007408F0000800F000701C0A
:10398C00C82CC92CCC2C40010E16CE2C40010E128A
:10399C00F01CD12CD22CD42C8E16D52C8E12701D42
:1039AC00D82CD92CDB2C0E17DC2C0E13F01DDF2C95
:1039BC00E02CE22C8E17E32C8E1308008030400193
:1039CC00BD064108F3004008F2003F08F1003E0834
:1039DC00F0003D08F7003C08F6003B08F5003A08FB
:1039EC00F4008831BD209C3173084001BD00720881
:1039FC00BC007108BB007008BA0008007E013F1EB5
:103A0C00082D092D0C2D903133209D317E01BF1EC8
:103A1C00102D112D142D90318A209D317E013F1FC8
:103A2C00182D192D1C2D9031E1209D317E01BF1FC9
:103A3C00202D212D242D913138219D310800F401A8
:103A4C00F40A20307006710403192D2D2E2D3E2DF5
:103A5C007008F73EF200FF30713DF3000030730246
:103A6C00053003197202031C3C2D3D2D3E2DF40133
:103A7C007408F200F3017208F0007308F1000800FA
:103A8C00F7007108F5007008F4007708F20072086E
:103A9C00F6007608860001308700F60A7508F300F8
:103AAC007408F200F40A0319F50A7208840073080A
:103ABC0085000008C03F8908031D652D662D4F2D1C
:103ACC000800F800F401F5017008F200F301720827
:103ADC00F6007308F700781C742D752D792D760877
:103AEC00F4077708F53D0130F635F70D890B7A2D83
:103AFC000310F80C7808031D842D852D712D750885
:103B0C00F1007408F00008007608BF3EF800FF30A2
:103B1C00773DF900003079021A3003197802031C42
:103B2C00982D9A2D01309B2D0030FA00FB017A085C
:103B3C00FC007B08FD007C087D040319A62DA72D35
:103B4C00AE2D20307604F60000307704F700AE2D51
:103B5C0008004001A300A101A201C72D2008F90013
:103B6C00FA017908F0007A08F1007808FB007B086C
:103B7C00F2009F31AA279D3101304001A10700308E
:103B8C00A23D21082307F90079088600013087003F
:103B9C000108FA007A08A0002008031DD62DD72DA5
:103BAC00B42D0800F40074080F39F1007108F2000C
:103BBC007408F039F1007108F30040010E15730818
:103BCC00F1000430F136890BE82D71089C31C424C6
:103BDC009D3140018E156A30890BF22D0032400167
:103BEC008E1172089C31C4249D3140018E156A30AF
:103BFC00890BFE2D003240018E1108004201C200DB
:103C0C00DB304001EE006E084201C3004208400167
:103C1C00EE006E084201C400C501C601C701C8010F
:103C2C0041015A084001E700410159084001E600F2
:103C3C004330EE006E08E8004430903102209E3193
:103C4C004201450842074001EE006E088600013033
:103C5C0087008101080000309C31C4249E31D03093
:103C6C00F300CA30890B382EF30B382E0330873112
:103C7C00EB279E313430F300F230890B432EF30BDB
:103C8C00432E03308731EB279E317330F3004830DD
:103C9C00890B4E2EF30B4E2E03308731EB279E31C2
:103CAC0002308731EB279E3102308731EB279E3172
:103CBC0008308731EB279E3100308731EB279E315E
:103CCC000C308731EB279E3100308731EB279E314A
:103CDC0006308731EB279E310800F6007603031D72
:103CEC00782E792E962E73087F3EF4007408F90016
:103CFC007908F4000430F436890B812E7408F50031
:103D0C007508F70079080F39F4007408F800770883
:103D1C008731EB279E3178088731EB279E31B82EFF
:103D2C0002307606031D9B2E9C2EB82E7308BF3EC8
:103D3C00F4007408F9007908F4000430F436890BA7
:103D4C00A42E7408F5007508F70079080F39F400F3
:103D5C007408F80077088731EB279E317808873193
:103D6C00EB279E31080000307005F800003071051B
:103D7C00F90080307205FA007F307305FB007B0878
:103D8C007A0479047804031DCC2ECD2ED52E003068
:103D9C00F3000030F2000030F1000030F000003091
:103DAC007405F80000307505F90080307605FA00CE
:103DBC007F307705FB007B087A0479047804031DB7
:103DCC00E82EE92EF12E0030F7000030F60000301E
:103DDC00F5000030F40077087306031DFF2E7608FB
:103DEC007206031DFF2E75087106031DFF2E740845
:103DFC0070060319022F032F052F0310062F03142F
:103E0C0008004001960197019801FF309100FF30A6
:103E1C009200033093007E01CE01FF30C3000F30BF
:103E2C00B800E501C401B9010330CF00BA01C501E6
:103E3C00D001FF30BB00FF30C600FF30D100FF3097
:103E4C00BC00FF30C700FF30D200E8013F12BF12A8
:103E5C003F13BF133E16BE163E17BE173D16BD16BA
:103E6C003D17BD170230F0000830F1009B31EE23F6
:103E7C009F310230F0000030F1009B31F4239F3170
:103E8C000330F0000030F1009B31FA239F31FF30FA
:103E9C00F0000730F1009C3100249F314E011616C2
:103EAC000800F601F31F5B2F5C2F632FF209F30957
:103EBC00F20A0319F30AF601F60AF11F662F672FAF
:103ECC006C2FF009F109F00A0319F10A700871045A
:103EDC000319712F722F9B2FF501F50A7E2F0130DC
:103EEC00F035F10D890B762F0130F4007408F507CD
:103EFC00F11F812F822F752F71087302031D882FDC
:103F0C0070087202031C8B2F8C2F902F7008F202FA
:103F1C007108F33B0130F136F00C890B912F013015
:103F2C00F502031D9A2F9B2F822F760803199F2FC2
:103F3C00A02FA52FF209F309F20A0319F30A73084B
:103F4C00F1007208F000080072080319AE2FAF2FB1
:103F5C00B42F7208031DB32FB42FB92F70088731FB
:103F6C00FE279F31FF2F7208033E86000130870029
:103F7C00160001040319C32FC42FE32F7208033E4C
:103F8C00860001308700403FF300413FF400720A85
:103F9C00860001308700403FF500413FF60076086F
:103FAC00803AF7007408803A7702031DDF2F7308FC
:103FBC0075020318E22FE32FFF2F7008F30072082D
:103FCC00860001308700720A8400013085000008E9
:103FDC000107F40074088600013087007308810023
:103FEC00720A8600013087000130810741310318C5
:103FFC00810A080044343D342034253439342E34BD
:10400C003334663420346D346D3400344C343D34E8
:10401C002034253439342E343334663420346D3422
:10402C006D34003452343D342034253439342E343C
:10403C003334663420346D346D340034423461349E
:10404C006E34633468346F3420344C3461346234ED
:10405C0000344C3461347434683465342034433463
:10406C0038344D34003449344E34463400344E34F4
:10407C0041344E34003469346E34663400346E345A
:0C408C0061346E3400346C34663400344F
:020000040001F9
:0A000E00EC3FFF3F9F3FFF3FFF3F25
:00000001FF
